{
  "contractName": "Department",
  "abi": [
    {
      "constant": false,
      "inputs": [
        {
          "name": "_addr",
          "type": "address"
        }
      ],
      "name": "registerInvoice",
      "outputs": [
        {
          "name": "success",
          "type": "bool"
        }
      ],
      "payable": false,
      "stateMutability": "nonpayable",
      "type": "function"
    },
    {
      "constant": false,
      "inputs": [
        {
          "name": "_supplier",
          "type": "address"
        }
      ],
      "name": "deregisterSupplier",
      "outputs": [],
      "payable": false,
      "stateMutability": "nonpayable",
      "type": "function"
    },
    {
      "constant": true,
      "inputs": [],
      "name": "owner",
      "outputs": [
        {
          "name": "",
          "type": "address"
        }
      ],
      "payable": false,
      "stateMutability": "view",
      "type": "function"
    },
    {
      "constant": false,
      "inputs": [
        {
          "name": "_newOwner",
          "type": "address"
        }
      ],
      "name": "changeOwner",
      "outputs": [],
      "payable": false,
      "stateMutability": "nonpayable",
      "type": "function"
    },
    {
      "constant": true,
      "inputs": [],
      "name": "balance",
      "outputs": [
        {
          "name": "",
          "type": "uint256"
        }
      ],
      "payable": false,
      "stateMutability": "view",
      "type": "function"
    },
    {
      "constant": false,
      "inputs": [
        {
          "name": "_supplier",
          "type": "address"
        }
      ],
      "name": "registerSupplier",
      "outputs": [],
      "payable": false,
      "stateMutability": "nonpayable",
      "type": "function"
    },
    {
      "constant": true,
      "inputs": [
        {
          "name": "",
          "type": "address"
        }
      ],
      "name": "registeredSuppliers",
      "outputs": [
        {
          "name": "",
          "type": "uint256"
        }
      ],
      "payable": false,
      "stateMutability": "view",
      "type": "function"
    },
    {
      "constant": false,
      "inputs": [
        {
          "name": "_invoiceAddr",
          "type": "address"
        }
      ],
      "name": "payInvoice",
      "outputs": [],
      "payable": false,
      "stateMutability": "nonpayable",
      "type": "function"
    },
    {
      "constant": false,
      "inputs": [],
      "name": "receiveDeposit",
      "outputs": [
        {
          "name": "success",
          "type": "bool"
        }
      ],
      "payable": true,
      "stateMutability": "payable",
      "type": "function"
    },
    {
      "constant": true,
      "inputs": [
        {
          "name": "",
          "type": "address"
        }
      ],
      "name": "registeredInvoices",
      "outputs": [
        {
          "name": "",
          "type": "uint256"
        }
      ],
      "payable": false,
      "stateMutability": "view",
      "type": "function"
    },
    {
      "constant": false,
      "inputs": [
        {
          "name": "_invoice",
          "type": "address"
        }
      ],
      "name": "removeInvoice",
      "outputs": [
        {
          "name": "success",
          "type": "bool"
        }
      ],
      "payable": false,
      "stateMutability": "nonpayable",
      "type": "function"
    },
    {
      "inputs": [],
      "payable": true,
      "stateMutability": "payable",
      "type": "constructor"
    },
    {
      "payable": true,
      "stateMutability": "payable",
      "type": "fallback"
    },
    {
      "anonymous": false,
      "inputs": [
        {
          "indexed": true,
          "name": "_owner",
          "type": "address"
        },
        {
          "indexed": true,
          "name": "_newOwner",
          "type": "address"
        }
      ],
      "name": "OwnerChanged",
      "type": "event"
    }
  ],
  "bytecode": "0x6060604052336000806101000a81548173ffffffffffffffffffffffffffffffffffffffff021916908373ffffffffffffffffffffffffffffffffffffffff160217905550610a06806100536000396000f3006060604052600436106100af576000357c0100000000000000000000000000000000000000000000000000000000900463ffffffff16806321732c75146100b157806347dbde25146101025780638da5cb5b1461013b578063a6f9dae114610190578063b69ef8a8146101c9578063cf7f5e5f146101f2578063d6176e891461022b578063e329a05414610278578063e367ef5e146102b1578063e57ad4c0146102d3578063f92b3c5b14610320575b005b34156100bc57600080fd5b6100e8600480803573ffffffffffffffffffffffffffffffffffffffff16906020019091905050610371565b604051808215151515815260200191505060405180910390f35b341561010d57600080fd5b610139600480803573ffffffffffffffffffffffffffffffffffffffff1690602001909190505061046c565b005b341561014657600080fd5b61014e61055f565b604051808273ffffffffffffffffffffffffffffffffffffffff1673ffffffffffffffffffffffffffffffffffffffff16815260200191505060405180910390f35b341561019b57600080fd5b6101c7600480803573ffffffffffffffffffffffffffffffffffffffff16906020019091905050610584565b005b34156101d457600080fd5b6101dc61069f565b6040518082815260200191505060405180910390f35b34156101fd57600080fd5b610229600480803573ffffffffffffffffffffffffffffffffffffffff169060200190919050506106a5565b005b341561023657600080fd5b610262600480803573ffffffffffffffffffffffffffffffffffffffff16906020019091905050610798565b6040518082815260200191505060405180910390f35b341561028357600080fd5b6102af600480803573ffffffffffffffffffffffffffffffffffffffff169060200190919050506107b0565b005b6102b96108ae565b604051808215151515815260200191505060405180910390f35b34156102de57600080fd5b61030a600480803573ffffffffffffffffffffffffffffffffffffffff169060200190919050506108c7565b6040518082815260200191505060405180910390f35b341561032b57600080fd5b610357600480803573ffffffffffffffffffffffffffffffffffffffff169060200190919050506108df565b604051808215151515815260200191505060405180910390f35b60008060009054906101000a900473ffffffffffffffffffffffffffffffffffffffff168073ffffffffffffffffffffffffffffffffffffffff163373ffffffffffffffffffffffffffffffffffffffff161415156103cf57600080fd5b6000600360008573ffffffffffffffffffffffffffffffffffffffff1673ffffffffffffffffffffffffffffffffffffffff1681526020019081526020016000205414151561041d57600080fd5b6001600360008573ffffffffffffffffffffffffffffffffffffffff1673ffffffffffffffffffffffffffffffffffffffff168152602001908152602001600020819055506001915050919050565b6000809054906101000a900473ffffffffffffffffffffffffffffffffffffffff168073ffffffffffffffffffffffffffffffffffffffff163373ffffffffffffffffffffffffffffffffffffffff161415156104c857600080fd5b6001600260008473ffffffffffffffffffffffffffffffffffffffff1673ffffffffffffffffffffffffffffffffffffffff1681526020019081526020016000205414151561051657600080fd5b6000600260008473ffffffffffffffffffffffffffffffffffffffff1673ffffffffffffffffffffffffffffffffffffffff168152602001908152602001600020819055505050565b6000809054906101000a900473ffffffffffffffffffffffffffffffffffffffff1681565b6000809054906101000a900473ffffffffffffffffffffffffffffffffffffffff168073ffffffffffffffffffffffffffffffffffffffff163373ffffffffffffffffffffffffffffffffffffffff161415156105e057600080fd5b8173ffffffffffffffffffffffffffffffffffffffff166000809054906101000a900473ffffffffffffffffffffffffffffffffffffffff1673ffffffffffffffffffffffffffffffffffffffff167fb532073b38c83145e3e5135377a08bf9aab55bc0fd7c1179cd4fb995d2a5159c60405160405180910390a3816000806101000a81548173ffffffffffffffffffffffffffffffffffffffff021916908373ffffffffffffffffffffffffffffffffffffffff1602179055505050565b60015481565b6000809054906101000a900473ffffffffffffffffffffffffffffffffffffffff168073ffffffffffffffffffffffffffffffffffffffff163373ffffffffffffffffffffffffffffffffffffffff1614151561070157600080fd5b6000600260008473ffffffffffffffffffffffffffffffffffffffff1673ffffffffffffffffffffffffffffffffffffffff1681526020019081526020016000205414151561074f57600080fd5b6001600260008473ffffffffffffffffffffffffffffffffffffffff1673ffffffffffffffffffffffffffffffffffffffff168152602001908152602001600020819055505050565b60026020528060005260406000206000915090505481565b6000809054906101000a900473ffffffffffffffffffffffffffffffffffffffff168073ffffffffffffffffffffffffffffffffffffffff163373ffffffffffffffffffffffffffffffffffffffff1614151561080c57600080fd5b6001600360008473ffffffffffffffffffffffffffffffffffffffff1673ffffffffffffffffffffffffffffffffffffffff1681526020019081526020016000205414151561085a57600080fd5b346001600082825403925050819055508173ffffffffffffffffffffffffffffffffffffffff166108fc349081150290604051600060405180830381858888f1935050505015156108aa57600080fd5b5050565b6000346001600082825401925050819055506001905090565b60036020528060005260406000206000915090505481565b60008060009054906101000a900473ffffffffffffffffffffffffffffffffffffffff168073ffffffffffffffffffffffffffffffffffffffff163373ffffffffffffffffffffffffffffffffffffffff1614151561093d57600080fd5b6001600360008573ffffffffffffffffffffffffffffffffffffffff1673ffffffffffffffffffffffffffffffffffffffff1681526020019081526020016000205414151561098b57600080fd5b6000600360008573ffffffffffffffffffffffffffffffffffffffff1673ffffffffffffffffffffffffffffffffffffffff1681526020019081526020016000208190555060019150509190505600a165627a7a72305820ae5734343797b36236dd39d1ba06aed47dcf9876b2af16dd45fd9c32030f5b780029",
  "source": "/*\nAuthor: Benjamin M. Brown\nEmail: benjaminbb@gmail.com\nGit: benjaminmbrown\n*/\npragma solidity ^0.4.11;\n\ncontract Department { \n\n    function Department () payable { \n        owner = msg.sender;\n    }\n    \n    address public owner;\n    uint public balance;\n    \n    struct Supplier {\n        address addr;\n        mapping(address => uint) invoices;\n    }\n\n    struct Invoice {\n        address invoiceAddress;\n    }\n    \n    mapping(address => uint) public registeredSuppliers;\n    mapping(address => uint) public registeredInvoices;\n\n    //*** Modifiers ***/\n\n    //Modifier to check for owner approval\n    modifier onlyBy(address _account) {\n        require(msg.sender == _account);\n        _;\n    }\n    //Modifier checks that the supplier is in approved supplier list\n    modifier byApprovedSupplier(address _supplier){\n        require(registeredSuppliers[_supplier]>0);\n        _;\n    }\n\n    //*** Events ***/\n    event OwnerChanged(address indexed _owner, address indexed _newOwner);\n    \n\n    //*** Contract Functions ***/\n    //Allows changing of ownership\n    function changeOwner(address _newOwner) onlyBy(owner){\n        OwnerChanged(owner, _newOwner);\n        owner = _newOwner;\n    }\n \n    //Only contract owner can approve a new supplier\n    //approved suppliers can invoice this deparment\n    function registerSupplier(address _supplier) onlyBy(owner) {\n       require (registeredSuppliers[_supplier] == 0);\n       registeredSuppliers[_supplier] = 1; \n       \n    }\n    //Removes a supplier. Invoices are retained\n    function deregisterSupplier(address _supplier) onlyBy(owner){\n        require(registeredSuppliers[_supplier] == 1);\n        registeredSuppliers[_supplier] = 0;\n    }\n    \n    //sets and invoice address\n    function registerInvoice(address _addr) public onlyBy(owner) returns (bool success){\n        require(registeredInvoices[_addr] == 0);\n        registeredInvoices[_addr] = 1;\n        return true;\n    }\n    \n    function removeInvoice(address _invoice) public onlyBy(owner) returns (bool success) {\n        require(registeredInvoices[_invoice] == 1);\n        registeredInvoices[_invoice] = 0;\n        return true;\n    }\n    \n    //The owner can pay a registered invoice\n    function payInvoice(address _invoiceAddr) onlyBy(owner){\n        require(registeredInvoices[_invoiceAddr]==1);\n        balance -= msg.value;\n        _invoiceAddr.transfer(msg.value);\n\t}\n\n    \n    // receives payment from tax distribution and pays out \n    // between active invoices\n    function receiveDeposit () \n    public \n    payable \n    returns (bool success){\n        balance += msg.value; \n        return true;\n    }\n    \n    //fallback\n    function () payable {}\n}\n",
  "sourcePath": "/Users/benjaminmbrown/Desktop/tax-flow/contracts/Department.sol",
  "compiler": {
    "name": "solc",
    "version": "0.4.18+commit.9cf6e910.Emscripten.clang"
  },
  "schemaVersion": "1.0.1",
  "updatedAt": "2017-12-19T19:31:07.686Z"
}