{
  "contractName": "Invoice",
  "abi": [
    {
      "constant": false,
      "inputs": [
        {
          "name": "_department",
          "type": "address"
        }
      ],
      "name": "sendInvoice",
      "outputs": [],
      "payable": false,
      "stateMutability": "nonpayable",
      "type": "function"
    },
    {
      "constant": true,
      "inputs": [],
      "name": "sender",
      "outputs": [
        {
          "name": "",
          "type": "address"
        }
      ],
      "payable": false,
      "stateMutability": "view",
      "type": "function"
    },
    {
      "constant": false,
      "inputs": [],
      "name": "receivePayment",
      "outputs": [
        {
          "name": "result",
          "type": "bool"
        }
      ],
      "payable": true,
      "stateMutability": "payable",
      "type": "function"
    },
    {
      "constant": true,
      "inputs": [],
      "name": "balanceDue",
      "outputs": [
        {
          "name": "",
          "type": "uint256"
        }
      ],
      "payable": false,
      "stateMutability": "view",
      "type": "function"
    },
    {
      "inputs": [
        {
          "name": "_balanceDue",
          "type": "uint256"
        }
      ],
      "payable": false,
      "stateMutability": "nonpayable",
      "type": "constructor"
    },
    {
      "payable": true,
      "stateMutability": "payable",
      "type": "fallback"
    }
  ],
  "bytecode": "0x6060604052341561000f57600080fd5b6040516020806102e18339810160405280805190602001909190505033600160006101000a81548173ffffffffffffffffffffffffffffffffffffffff021916908373ffffffffffffffffffffffffffffffffffffffff160217905550806000819055505061025e806100836000396000f300606060405260043610610062576000357c0100000000000000000000000000000000000000000000000000000000900463ffffffff1680632d4d27c51461007357806367e404ce146100ac578063835c19f3146101015780638e6a99bb14610123575b346000808282540392505081905550005b341561007e57600080fd5b6100aa600480803573ffffffffffffffffffffffffffffffffffffffff1690602001909190505061014c565b005b34156100b757600080fd5b6100bf6101ee565b604051808273ffffffffffffffffffffffffffffffffffffffff1673ffffffffffffffffffffffffffffffffffffffff16815260200191505060405180910390f35b610109610214565b604051808215151515815260200191505060405180910390f35b341561012e57600080fd5b61013661022c565b6040518082815260200191505060405180910390f35b600160009054906101000a900473ffffffffffffffffffffffffffffffffffffffff168073ffffffffffffffffffffffffffffffffffffffff163373ffffffffffffffffffffffffffffffffffffffff161415156101a957600080fd5b33600160006101000a81548173ffffffffffffffffffffffffffffffffffffffff021916908373ffffffffffffffffffffffffffffffffffffffff1602179055505050565b600160009054906101000a900473ffffffffffffffffffffffffffffffffffffffff1681565b60003460008082825403925050819055506001905090565b600054815600a165627a7a72305820bb1ef13f742242fc7dfb8e83573a82a2332823715d688faf7e8f6cbdd10f9d600029",
  "source": "//Author: Shaan Ray\npragma solidity ^0.4.11;\n\ncontract Invoice {\n\n    function Invoice (uint _balanceDue){\n        sender = msg.sender;\n        balanceDue = _balanceDue;\n    }\n\n    modifier onlyBy(address _account) {\n        require(msg.sender == _account);\n        _;\n    }\n\n    uint public balanceDue;\n    address public sender;\n\n    // supplier sends invoice to the Department\n    function sendInvoice(address _department) onlyBy(sender){\n        sender = msg.sender;\n        \n    }\n\n    // accepts payment of invoice\n   function receivePayment() payable returns (bool result) {\n    //TODO: not sure how payments are handled but assume that Department will\n    //check the balanceDue of this invoice and never send more.\n    balanceDue -= msg.value;\n    return true;\n  }\n\n    //fallback to accept funds sent to wrong function\n      function () payable {\n            balanceDue -= msg.value;\n      }\n\n}\n",
  "sourcePath": "/Users/benjaminmbrown/Desktop/tax-flow/contracts/Invoice.sol",
  "compiler": {
    "name": "solc",
    "version": "0.4.18+commit.9cf6e910.Emscripten.clang"
  },
  "schemaVersion": "1.0.1",
  "updatedAt": "2017-12-19T19:31:07.698Z"
}