{
  "contractName": "TaxCollection",
  "abi": [
    {
      "constant": false,
      "inputs": [
        {
          "name": "amount",
          "type": "uint256"
        }
      ],
      "name": "withdraw",
      "outputs": [
        {
          "name": "success",
          "type": "bool"
        }
      ],
      "payable": false,
      "stateMutability": "nonpayable",
      "type": "function"
    },
    {
      "constant": true,
      "inputs": [
        {
          "name": "",
          "type": "uint256"
        }
      ],
      "name": "departmentlist",
      "outputs": [
        {
          "name": "",
          "type": "address"
        }
      ],
      "payable": false,
      "stateMutability": "view",
      "type": "function"
    },
    {
      "constant": false,
      "inputs": [],
      "name": "getPayment",
      "outputs": [],
      "payable": true,
      "stateMutability": "payable",
      "type": "function"
    },
    {
      "constant": true,
      "inputs": [
        {
          "name": "",
          "type": "address"
        }
      ],
      "name": "departmentBalance",
      "outputs": [
        {
          "name": "",
          "type": "uint256"
        }
      ],
      "payable": false,
      "stateMutability": "view",
      "type": "function"
    },
    {
      "constant": false,
      "inputs": [],
      "name": "payDepartment",
      "outputs": [
        {
          "name": "success",
          "type": "bool"
        }
      ],
      "payable": true,
      "stateMutability": "payable",
      "type": "function"
    },
    {
      "inputs": [
        {
          "name": "dept1",
          "type": "address"
        },
        {
          "name": "dept2",
          "type": "address"
        }
      ],
      "payable": false,
      "stateMutability": "nonpayable",
      "type": "constructor"
    },
    {
      "anonymous": false,
      "inputs": [
        {
          "indexed": false,
          "name": "sender",
          "type": "address"
        },
        {
          "indexed": false,
          "name": "amount",
          "type": "uint256"
        }
      ],
      "name": "LogReceived",
      "type": "event"
    },
    {
      "anonymous": false,
      "inputs": [
        {
          "indexed": false,
          "name": "beneficiary",
          "type": "address"
        },
        {
          "indexed": false,
          "name": "amount",
          "type": "uint256"
        }
      ],
      "name": "Logsent",
      "type": "event"
    }
  ],
  "bytecode": "0x6060604052341561000f57600080fd5b6040516040806105e083398101604052808051906020019091908051906020019091905050816002600060028110151561004557fe5b0160006101000a81548173ffffffffffffffffffffffffffffffffffffffff021916908373ffffffffffffffffffffffffffffffffffffffff160217905550806002600060028110151561009557fe5b0160006101000a81548173ffffffffffffffffffffffffffffffffffffffff021916908373ffffffffffffffffffffffffffffffffffffffff1602179055506000808190555050506104f4806100ec6000396000f30060606040526004361061006d576000357c0100000000000000000000000000000000000000000000000000000000900463ffffffff1680632e1a7d4d146100725780636abf48e8146100ad578063bb328a7d14610110578063bded36771461011a578063f27ce50f14610167575b600080fd5b341561007d57600080fd5b6100936004808035906020019091905050610189565b604051808215151515815260200191505060405180910390f35b34156100b857600080fd5b6100ce60048080359060200190919050506102d8565b604051808273ffffffffffffffffffffffffffffffffffffffff1673ffffffffffffffffffffffffffffffffffffffff16815260200191505060405180910390f35b61011861030d565b005b341561012557600080fd5b610151600480803573ffffffffffffffffffffffffffffffffffffffff1690602001909190505061031e565b6040518082815260200191505060405180910390f35b61016f610336565b604051808215151515815260200191505060405180910390f35b600081600160003373ffffffffffffffffffffffffffffffffffffffff1673ffffffffffffffffffffffffffffffffffffffff1681526020019081526020016000205410156101d757600080fd5b81600160003373ffffffffffffffffffffffffffffffffffffffff1673ffffffffffffffffffffffffffffffffffffffff168152602001908152602001600020600082825403925050819055503373ffffffffffffffffffffffffffffffffffffffff166108fc839081150290604051600060405180830381858888f19350505050151561026457600080fd5b7f8901518665600d2e5ae1f94f3f91f8deb1dc97f74445fb0c6291806b7e43dbe03383604051808373ffffffffffffffffffffffffffffffffffffffff1673ffffffffffffffffffffffffffffffffffffffff1681526020018281526020019250505060405180910390a160019050919050565b6002816002811015156102e757fe5b016000915054906101000a900473ffffffffffffffffffffffffffffffffffffffff1681565b346000808282540192505081905550565b60016020528060005260406000206000915090505481565b60008060008054141561034857600080fd5b600260005481151561035657fe5b04905080600160006002600060028110151561036e57fe5b0160009054906101000a900473ffffffffffffffffffffffffffffffffffffffff1673ffffffffffffffffffffffffffffffffffffffff1673ffffffffffffffffffffffffffffffffffffffff168152602001908152602001600020600082825401925050819055508060016000600260016002811015156103ec57fe5b0160009054906101000a900473ffffffffffffffffffffffffffffffffffffffff1673ffffffffffffffffffffffffffffffffffffffff1673ffffffffffffffffffffffffffffffffffffffff168152602001908152602001600020600082825401925050819055507f60e4c1ac84c9e2c4c0aa82b86b3b1ddf0b1b73fbbeb74c8bc8f8f06041ccfdf63334604051808373ffffffffffffffffffffffffffffffffffffffff1673ffffffffffffffffffffffffffffffffffffffff1681526020018281526020019250505060405180910390a16001915050905600a165627a7a72305820d9632976a71fea9910948f80f5b4220e7c458f3d30179324bbb9a81a2c2a7cc50029",
  "source": "//Author: Mohamed Hasan\npragma solidity ^0.4.11;\n\ncontract TaxCollection {\n    uint balance;\n    \n    mapping(address => uint) public departmentBalance;\n    address[2] public departmentlist;\n    \n    event LogReceived(address sender,uint amount);\n    event Logsent(address beneficiary,uint amount);\n    \n    //needs to set the initial balance\n    function TaxCollection(address dept1,address dept2) public {\n        departmentlist[0]=dept1;\n        departmentlist[0]=dept2;\n        balance=0;\n    }\n    \n    //create a function to receive payment from outside world and increase balanc\n        function getPayment() public payable {\n        balance += msg.value ;\n    }\n    \n    //payDepartment accept a payment  */\n    function payDepartment () public payable returns (bool success) {\n    if(balance==0) revert();\n\n    uint split = balance/2;\n    departmentBalance[departmentlist[0]] += split;\n    departmentBalance[departmentlist[1]] += split;\n    LogReceived(msg.sender,msg.value);\n    return true;\n    }\n  \n    //Withdraw allows department to request payment\n    function withdraw(uint amount) public returns(bool success){\n    if (departmentBalance[msg.sender] < amount) revert(); \n    departmentBalance[msg.sender] -= amount;         \n    if (!msg.sender.send(amount)) revert();              \n    Logsent(msg.sender, amount);\n    return true;\n    }\n\n}",
  "sourcePath": "/Users/benjaminmbrown/Desktop/tax-flow/contracts/TaxCollection.sol",
  "compiler": {
    "name": "solc",
    "version": "0.4.18+commit.9cf6e910.Emscripten.clang"
  },
  "schemaVersion": "1.0.1",
  "updatedAt": "2017-12-19T19:31:07.708Z"
}